:100000000C94E3000C940B010C940B010C940B0169
:100010000C940B010C940B010C940B010C940B0130
:100020000C940B010C94FD060C940F010C948101AF
:100030000C940B010C940B010C940B010C940B0110
:100040000C940B010C940B010C940B010C940B0100
:100050000C940B010C940B010C940B010C94C8082C
:100060000C940B010C94CB060C94A5060C940B017C
:100070000C940B010C940B010C940B010C940B01D0
:100080000C940B010C940B010C940B010C940B01C0
:100090000C940B010C940B010C940B010C940B01B0
:1000A0000C940B010C940B010C940B012A082D08E5
:1000B0001C08200824084E084E084E083108350850
:1000C00039083F0843084E0849080403090412018F
:1000D0000002EF02014041233680000101020301CA
:1000E00041726475696E6F204C4C430041726475B7
:1000F000696E6F204C656F6E6172646F0007060554
:10010000040100080A0B0C0D09080B000202020191
:10011000000904000001020200000524001001058E
:1001200024010101042402060524060001070581BB
:100130000310004009040100020A00000007050244
:10014000024000000705830240000000000002009A
:10015000090F0000030401000C0000000000000073
:10016000000000000000000000000000000025006A
:1001700028002B002E003100000000002400270082
:100180002A002D00300004040404040304050202C4
:100190000202040302020202060606060606040420
:1001A00002020204040408020110408040102040B2
:1001B000804080080204018040201002011080105D
:1001C00020404020080C11241FBECFEFDAE0DEBF34
:1001D000CDBF11E0A0E0B1E0ECE8F9E102C005908C
:1001E0000D92AE3EB107D9F723E0AEEEB1E001C00B
:1001F0001D92A33AB207E1F710E0C3EED0E004C0CD
:100200002197FE010E94B90CC23ED107C9F70E9496
:1002100012090C94C40C0C9400000E94BF0C1F9295
:100220000F920FB60F9211248F939F938091E1004C
:100230009091E100937F9093E10083FF0FC01092B3
:10024000E90091E09093EB001092EC0092E3909320
:10025000ED001092FF0198E09093F00082FF20C023
:1002600093E09093E9009091F200992319F09AE3BA
:100270009093E8009091F201992339F09091F20166
:1002800091509093F201992389F19091FE01992365
:1002900039F09091FE0191509093FE01992341F124
:1002A00084FF10C08091E2008E7E81608093E20026
:1002B0008091E1008F7E8093E1008091F3018E7E3A
:1002C000806111C080FF16C08091E2008E7E806147
:1002D0008093E2008091E1008E7E8093E100809126
:1002E000F3018E7E81608093F30104C05D9ACDCFCF
:1002F000289AD6CF9F918F910F900FBE0F901F908D
:1003000018951F920F920FB60F921124CF92DF9281
:10031000EF92FF920F931F932F933F934F935F930F
:100320006F937F938F939F93AF93BF93EF93FF93BD
:10033000CF93DF93CDB7DEB76C97DEBFCDBF109202
:10034000E9008091E80083FFFBC168E0CE0145969B
:100350000E94980682EF8093E8008D8987FF05C090
:100360009091E80090FFFCCF03C09EEF9093E800CF
:10037000982F907609F0C6C09E894F89588D2F8995
:10038000F88C91110CC0803829F48091F50180938C
:10039000F10002C01092F1001092F10045C19130BD
:1003A00051F4811141C14130510509F03DC18091A5
:1003B000F5018D7F0BC0933061F4811135C141305F
:1003C000510509F031C18091F50182608093F501FA
:1003D0002BC1953049F48091E80080FFFCCF822F3B
:1003E00080688093E30020C1963009F05EC00B8DD9
:1003F0001C8D22E01092E9001092F1011092F001A0
:10040000F21232C01092EF011092EE010E946606C5
:1004100099E0BE016F5F7F4FDB01E92F1D92EA95E6
:10042000E9F79983FA8291E09E8390EA98879AEFA0
:1004300099872091F0013091F101275F3F4F3C8374
:100440002B838D831092E9001092F1011092F0013C
:100450001093EF010093EE0149E050E080E00E942C
:100460003F060E946606E0C01093EF010093EE0184
:100470000E94EB07DC0112960D911C911397011558
:10048000110509F4BBC0D801ED91FC910480F58100
:10049000E02DBE016B5E7F4FC8010995009709F002
:1004A000C7C0F80100851185EACF973009F445C12E
:1004B000983021F481E08093F100B6C0993009F0C2
:1004C000B3C0837009F039C1EBE7F1E081E031E0BE
:1004D00096E32081211109C08EE78093EA001092F3
:1004E000EA008F898093FF019FC08093E9003093D9
:1004F000EB0021912093EC009093ED008F5F87300B
:1005000041F7EACF8B8D9C8D1092E9001092F1019A
:100510001092F0019093EF018093EE01898D81118B
:1005200053C08E899D89913A49F4813209F005C101
:1005300047E050E064E071E080E0BBC0913209F038
:10054000FCC0833269F48F89988DA0E0B0E080937D
:10055000000190930101A0930201B093030164C0D4
:10056000803269F48091E80082FFFCCF67E084E08C
:1005700091E00E9498068BEF8093E80055C082328C
:1005800009F052C08F8980930B01EEEFFFE7859150
:1005900094918B3F9C4D19F0E0E0F8E002C0EEEF43
:1005A000FAE08091040190910501A0910601B091BB
:1005B0000701803B9440A105B10509F09EC08091E0
:1005C0000B0180FF79C099C00E94EB07FC010281FA
:1005D00013810115110509F4B0C0D801ED91FC910A
:1005E0000190F081E02DBE016B5E7F4FC80109953F
:1005F00081111AC0F80100851185EBCFF1E0FF16DB
:1006000009F44EC0F3E0FF1298C08F89882309F4E3
:100610004AC0823089F440E860E18CEE90E00E94AC
:10062000D30B882309F489C08EEF8093E80088C03B
:1006300018161906CCF381C0813029F440E86BE02C
:1006400080EE90E0ECCF833009F077C00E94EB079A
:10065000DC011296ED90FC9013978E010F5F1F4FF7
:100660006801E114F10479F0D701ED91FC91068065
:10067000F781E02DB801C7010995080F111DF70199
:10068000E084F184EECFD8011C92F60101900020A5
:10069000E9F73197BF016C197D0940E0C601BFCF72
:1006A0006EEC70E002C06AEC70E0FB01449150E037
:1006B00080E80E943F06B8CFEE3F2AE0F20751F0F3
:1006C000808191818737A7E79A0721F09093FF0AED
:1006D0008093FE0A87E797E791838083809160008B
:1006E0008093F4019BE088E10FB6F894A89580937D
:1006F00060000FBE9093600097CF80819181873713
:10070000974709F091CFA895809160008861809308
:1007100060008091F40180936000EE3FBAE0FB0737
:1007200039F08091FE0A9091FF0A918380837CCFFB
:100730001092FF0A1092FE0A77CF81E28093EB00BD
:100740006C960FB6F894DEBF0FBECDBFDF91CF9190
:10075000FF91EF91BF91AF919F918F917F916F9199
:100760005F914F913F912F911F910F91FF90EF90CB
:10077000DF90CF900F900FBE0F901F901895409173
:10078000F0015091F1012091EE013091EF014217FB
:100790005307B4F49091E8009570E1F39091E8006C
:1007A00092FD19C08093F1008091F0019091F101C8
:1007B00001968F739927892B19F48EEF8093E800A7
:1007C0008091F0019091F10101969093F101809355
:1007D000F00181E0089580E00895CF92DF92EF92DA
:1007E000FF920F931F93CF93DF936C017A018B01DC
:1007F000C0E0D0E0CE15DF0581F0D8016D918D010C
:10080000D601ED91FC910190F081E02DC601099592
:10081000892B11F02196EECF7E01C701DF91CF9198
:100820001F910F91FF90EF90DF90CF900895FC0102
:10083000538D448D252F30E0842F90E0821B930B45
:10084000541710F0CF96089501970895FC01918DEB
:10085000828D981761F0828DDF01A80FB11D5D9622
:100860008C91928D9F5F9F73928F90E008958FEF90
:100870009FEF0895FC01918D828D981731F0828D44
:10088000E80FF11D858D90E008958FEF9FEF08959B
:10089000FC01918D228D892F90E0805C9F4F821BFF
:1008A00091098F739927089580E592E00E9448048A
:1008B00021E0892B09F420E0822F0895FC01848D2A
:1008C000DF01A80FB11DA35ABF4F2C91848D90E07A
:1008D00001968F739927848FA689B7892C93A08955
:1008E000B1898C9182748C93938D848D981306C0FA
:1008F0000288F389E02D80818F7D80830895EF92B7
:10090000FF920F931F93CF93DF93EC0181E0888FC9
:100910009B8D8C8D981305C0E889F989808185FDB0
:1009200026C0F62E0B8D10E00F5F1F4F0F7311279F
:10093000E02E8C8DE8120CC00FB607FCFACFE889C8
:10094000F989808185FFF5CFCE010E945E04F1CF49
:100950008B8DFE01E80FF11DE35AFF4FF0829FB728
:10096000F8940B8FEA89FB898081806209C09FB768
:10097000F894EE89FF896083E889F989808182741F
:1009800080839FBF81E090E0DF91CF911F910F9115
:10099000FF90EF900895CF93DF93EC01888D88232B
:1009A000C9F0EA89FB89808185FD05C0A889B989DC
:1009B0008C9186FD0FC00FB607FCF5CF808185FFB7
:1009C000F2CFA889B9898C9185FFEDCFCE010E9425
:1009D0005E04E7CFDF91CF91089580E090E0892B0E
:1009E00029F00E94540481110C9400000895CF93C3
:1009F000DF931F92CDB7DEB76983DC01ED91FC91E7
:100A00000280F381E02D41E050E0BE016F5F7F4F37
:100A100009950F90DF91CF91089583E08093E900CD
:100A20008091F200882319F08AE38093E80008950A
:100A3000FC018485958597FD0BC09FB7F89482E0F3
:100A40008093E9008091F2009FBF90E001960895A5
:100A50009FB7F89482E08093E9008091F2009FBFF5
:100A600090E00895089580E090E00895FC0186816B
:100A7000845F0895FC01611102C082850895613090
:100A800011F481850895623011F4808508956330F2
:100A900011F487810895643011F4868508956530D6
:100AA00011F485850895663011F4848508956730C2
:100AB00011F483850895683011F4808908956930B0
:100AC00011F4878508956A3011F4818908956B3097
:100AD00011F4828908950480F581E02DE60FF11D5F
:100AE0003C97808108958F929F92AF92BF92CF9250
:100AF000DF92EF92FF920F931F93CF93DF936C01DE
:100B00007B018A0180910B01882309F45CC08091EC
:100B1000FF01882309F457C08091F30180FF05C0CD
:100B20008091E00082608093E000E801B12C8AEFC0
:100B3000A82E93E0892E2AE3922E209711F4BB2051
:100B4000D9F10E94DA0781110AC0AA94AA20D9F12A
:100B500061E070E080E090E00E946308EECF282F13
:100B600030E0C217D3070CF48C2F9FB7F894809213
:100B7000E9002091E80025FF1DC0282F30E0C21BAE
:100B8000D30BF701815020F041914093F100FACF4F
:100B9000E20EF31EBB2019F09092E8000AC080918B
:100BA000E80085FD07C09092E800BB24B39420972D
:100BB00009F0B12C9FBFC1CF5D9884E68093F2010C
:100BC0001016110644F081E090E0F60193838283D1
:100BD00080E090E001C0C801DF91CF911F910F919B
:100BE000FF90EF90DF90CF90BF90AF909F908F904D
:100BF00008950E94DA0790E008950F931F93CF9312
:100C0000DF931F92CDB7DEB78C01FC0184859585FB
:100C100097FF0EC0CE0101960E94AC07019719F410
:100C2000898190E002C08FEF9FEFF801958784875C
:100C3000F801848595850F90DF91CF911F910F91D9
:100C40000895CF93DF931F92CDB7DEB7FC01848563
:100C5000958597FD05C02FEF3FEF358724870BC0A3
:100C6000CE0101960E94AC07019719F4898190E0AA
:100C700002C08FEF9FEF0F90DF91CF910895DF9229
:100C8000EF92FF920F931F93CF93DF93D82E8A0199
:100C90007B01E40EF51EEB01CE15DF0571F0D7FEEA
:100CA00003C0FE01849101C088810E94BF03219688
:100CB0008111F2CF8FEF9FEF01C0C801DF91CF917B
:100CC0001F910F91FF90EF90DF9008950F931F9366
:100CD000CF93DF931F92CDB7DEB782E0898342E4E2
:100CE00050E069E071E080E80E943F060E94EB0757
:100CF000DC0112960D911C9113970115110589F0D5
:100D0000D801ED91FC910280F381E02DBE016F5F6F
:100D10007F4FC801099597FD04C0F8010085118532
:100D2000ECCF89810F90DF91CF911F910F910895A2
:100D3000615030F02091F100FC0120830196F8CF42
:100D4000289884E68093FE0108951F920F920FB6B3
:100D50000F9211242F933F934F935F936F937F9341
:100D60008F939F93AF93BF93EF93FF9380E592E0B0
:100D70000E945E04FF91EF91BF91AF919F918F917F
:100D80007F916F915F914F913F912F910F900FBE87
:100D90000F901F9018951F920F920FB60F9211246B
:100DA0002F938F939F93EF93FF93E0916002F091C5
:100DB00061028081E0916602F091670282FD12C0BB
:100DC0009081809169028F5F8F7320916A028217F0
:100DD00051F0E0916902F0E0E05BFD4F958F809368
:100DE000690201C08081FF91EF919F918F912F91B6
:100DF0000F900FBE0F901F9018951F920F920FB675
:100E00000F9211240F900FBE0F901F9018953FB7AF
:100E1000F8948091760390917703A0917803B09134
:100E2000790326B5A89B05C02F3F19F00196A11D97
:100E3000B11D3FBFBA2FA92F982F8827820F911D70
:100E4000A11DB11DBC01CD0142E0660F771F881FB7
:100E5000991F4A95D1F70895009769F0FC01019018
:100E60000020E9F73197AF01481B590BBC0180E026
:100E700092E00C94730580E090E00895CF93DF93A7
:100E80000E942C07EC0182EE91E00E942C078C0F4F
:100E90009D1FDF91CF9108958F929F92AF92BF9245
:100EA0000F931F93CF93DF93CDB7DEB7A1970FB604
:100EB000F894DEBF0FBECDBF19A2423008F44AE05D
:100EC0008E010F5D1F4F842E912CA12CB12CA501FA
:100ED00094010E94970CE62FB901CA010150110933
:100EE000EA3014F4E05D01C0E95CD801EC93232BF7
:100EF000242B252B61F7C8010E942C07A1960FB661
:100F0000F894DEBF0FBECDBFDF91CF911F910F913F
:100F1000BF90AF909F908F90089590E0FC01EB55AB
:100F2000FE4F2491FC01EA57FE4F8491882399F0EB
:100F300090E0880F991FFC01E858FE4FA591B491ED
:100F4000FC01E659FE4F859194918FB7F894EC918E
:100F5000E22BEC938FBF08952091FF01211103C074
:100F60008FEF9FEF08955FB7F89422E02093E90098
:100F70002091F20030E01216130614F421E030E064
:100F8000422FFC0184E6415038F028988093FE01FE
:100F90009091F1009193F7CF2115310521F08091C7
:100FA000F200882319F05FBFC90108958BE6809392
:100FB000E800F9CF2FB7F89483E08093E90090918F
:100FC000E800892F807295FF04C09091F20080E4C0
:100FD000891B2FBF089580917E0381110DC082E08F
:100FE00080937A0384E080937B0310927D031092B8
:100FF0007C0381E080937E038AE793E00895362F97
:1010000090E0FC01E55BFE4F4491FC01EB55FE4F87
:101010002491FC01EA57FE4F8491882309F452C0C1
:101020004423E1F150E0FA013197EF30F105B0F5DA
:10103000EA5AFF4F0C94B90C909180009F7707C03B
:10104000909180009F7D03C090918000977F909346
:10105000800024C094B59F7702C094B59F7D94BD55
:101060001DC0909190009F7707C0909190009F7D48
:1010700003C090919000977F909390000FC0909143
:10108000C0009F7703C09091C0009F7D9093C000E7
:1010900005C09091C200977F9093C200E82FF0E0C6
:1010A000EE0FFF1FE659FE4FA591B4919FB7F8943C
:1010B000311104C08C912095282302C0EC912E2B75
:1010C0002C939FBF08958F929F92AF92BF92CF9221
:1010D000DF92EF92FF926B017C010E9407074B01A8
:1010E0005C01C114D104E104F104F1F00E9407078E
:1010F000DC01CB0188199909AA09BB09883E9340F4
:10110000A105B10570F321E0C21AD108E108F10888
:1011100088EE880E83E0981EA11CB11CC114D10476
:10112000E104F10419F7DDCFFF90EF90DF90CF904D
:10113000BF90AF909F908F900895FF920F931F9351
:10114000CF93DF93F82E8B01C0E0D0E0C017D1071A
:10115000CCF461E08F2D0E94FF0768EC70E080E026
:1011600090E00E94630860E08F2D0E94FF072196A7
:10117000C017D1075CF768EC70E080E090E00E9457
:101180006308E4CFDF91CF911F910F91FF900895F5
:101190001F920F920FB60F9211242F933F938F93AC
:1011A0009F93AF93BF938091FA019091FB01A0911F
:1011B000FC01B091FD013091750323E0230F2D3721
:1011C00020F40196A11DB11D05C026E8230F02964B
:1011D000A11DB11D209375038093FA019093FB012B
:1011E000A093FC01B093FD01809176039091770369
:1011F000A0917803B09179030196A11DB11D809350
:10120000760390937703A0937803B0937903BF910B
:10121000AF919F918F913F912F910F900FBE0F90A3
:101220001F901895789484B5826084BD84B58160E0
:1012300084BD85B5826085BD85B5816085BD8091A1
:101240006E00816080936E00109281008091810019
:101250008260809381008091810081608093810011
:1012600080918000816080938000809191008260F5
:101270008093910080919100816080939100809192
:1012800090008160809390008091C1008460809381
:10129000C1008091C10082608093C1008091C10033
:1012A00081608093C1008091C30081608093C300FE
:1012B0008091C00082608093C0008091C2008160F4
:1012C0008093C20080917A00846080937A0080913C
:1012D0007A00826080937A0080917A0081608093A6
:1012E0007A0080917A00806880937A001092FF01E2
:1012F0001092F5011092F3018091D70081608093E4
:10130000D70080EA8093D80089B5806189BD89B50E
:10131000826089BD09B400FEFDCF61E070E080E02D
:1013200090E00E9463088091D8008F7C8061809358
:10133000D8008091E000807F8093E0008091E10000
:101340008E7E8093E1008DE08093E200559A209A92
:101350000E948D078DE00E948D07E0916002F09160
:10136000610282E08083E0915C02F0915D02108274
:10137000E0915E02F0915F0283E380831092680245
:10138000E0916402F091650286E08083E091620260
:10139000F0916302808180618083E0916202F0912C
:1013A0006302808188608083E0916202F091630231
:1013B000808180688083E0916202F0916302808185
:1013C0008F7D808380E592E0909374038093730314
:1013D0008FEF9FEF90930D0280930C0283E00E94A9
:1013E0008D0752E0E52E51E0F52E4424439462E04F
:1013F000762EDD24D39474E0572EF70184919091DA
:101400007B0083FB002700F910E0980145E0220FE4
:10141000331F4A95E1F79F7D292B20937B0087702E
:10142000806480937C0080917A00806480937A004D
:1014300080917A0086FDFCCF8091780080917900C0
:1014400080E092E00E941805181619060CF050C1B1
:1014500080E092E00E9421068C36910509F048C197
:10146000C4E1D0E090E2C92E2FB7F8948091FA0140
:101470009091FB01A091FC01B091FD012FBF8093E1
:10148000F6019093F701A093F801B093F90161E0A0
:1014900083E00E94FF074EE650E06CE071E080E5DB
:1014A00092E00E94ED038FB7F8948090FA0190903B
:1014B000FB01A090FC01B090FD018FBF83E0682E7E
:1014C0002FB7F8948091FA019091FB01A091FC0153
:1014D000B091FD012FBF88199909883893410CF00C
:1014E000C5C08091FE0281110CC18091FF02811163
:1014F00008C18091730390917403DC01ED91FC911C
:101500000084F185E02D0995892B09F4A6C080910E
:10151000730390917403DC01ED91FC910284F385D7
:10152000E02D09958093020390910103992331F1F5
:101530008E3719F46092FF0290C08D37F9F48091D4
:10154000730390917403DC01ED91FC910084F185AB
:10155000E02D0995892B79F08091730390917403A4
:10156000DC01ED91FC910284F385E02D09958C2539
:101570008093020303C0D0920003BBCF809100038D
:10158000882339F0809102038C2580930203109206
:10159000000340910103433038F0909103038091A0
:1015A0000203890F809303034130A1F058F04230C9
:1015B000C1F04330E9F4809102038093F902509224
:1015C000010397CF809102038E3709F092CFD0921A
:1015D00001038FCF809102038093FA02709201037E
:1015E00088CF809102038093FB026092010381CF38
:1015F0004F3618F07092FF0230C0842F90E0209197
:10160000FB0230E02D5F3F4F82179307A9F48091D2
:1016100003038F3F49F4809102038093FC02D09230
:10162000FE021092FF0202C0D092FF02445040938B
:10163000FD021092010311C0409102032091F702B4
:101640003091F802820F931FFC0134974083809100
:1016500001038F5F809301034CCF8091FE028111C3
:1016600065C08091FF02882309F42ACF8091FF0290
:10167000882309F48DC08EEB91E00E943E076091B3
:10168000FF0270E080E090E04AE00E944C0782EEAA
:1016900091E00E942C072FB7F8948091FA01909165
:1016A000FB01A091FC01B091FD012FBF8090F601DC
:1016B0009090F701A090F801B090F901BC01CD0124
:1016C000681979098A099B094AE00E944C0782EE51
:1016D00091E00E942C0760ED77E080E090E00E94AE
:1016E000630860E083E00E94FF07219709F0BCCE09
:1016F0006AE070E080E090E00E9463080E94ED04E0
:101700007CCE1092010310920003109203031092FA
:10171000FE021092FF021092FC021092F902109247
:10172000FA021092FB021092FD02E3CE8091F902C0
:101730008B3809F0B0CFE091F702F091F802F09306
:10174000EE02E093ED028093EF024092F40280916A
:10175000FC028093F2028091FF028093F502809157
:10176000FD028093F3028091FA028093F00280914F
:10177000FB028093F1028481882309F48CCF63E01B
:1017800070E08DE090E00E949D0885EB91E008C03C
:1017900062E070E08DE090E00E949D0885EE91E0AF
:1017A0000E943E0778CFDF92EF92FF920F931F9334
:1017B000CF93DF93D82EF92EE42E062F10E0C80128
:1017C0000196880F0E94BF0383E00E94BF03CD2DC6
:1017D000DF2D0C0F1D1FC017D10789F0E7FE03C0D6
:1017E000FE01849101C088810E94BF03F82E80E031
:1017F0000E94BF038F2121968111EDCF01C081E0AE
:10180000DF91CF911F910F91FF90EF90DF9008959E
:10181000CF93DF93E0E5F2E01382128248EE53E0CB
:1018200060E070E0448355836683778385E891E0C8
:10183000918380838DEC90E0958784878CEC90E099
:101840009787868788EC90E0918B808B89EC90E07D
:10185000938B828B8AEC90E0958B848B8EEC90E05E
:10186000978B868B118E128E138E148EA0E0B2E0B1
:1018700013961C921E92129714964D935D936D933E
:101880007C93179787E991E011969C938E938FEF45
:101890009FEF1D969C938E931C97A7EFB2E01A962C
:1018A0001C921A9719961C9219971C961C921C97B9
:1018B0001D961C921D9717961C92179718961C92AE
:1018C000189715961C92159785E093E08D939C933D
:1018D000F0937403E093730388E0EDEAF1E0ABE981
:1018E000B3E001900D928A95E1F7C8E8D3E080E17A
:1018F0008A8381E08B8386E893E09D838C8382E0FA
:101900008E8389EA91E09983888388E0EBE9F3E0AC
:10191000AFE8B3E001900D928A95E1F78EEF9FEF6B
:10192000988B8F87198A1A8ADF91CF910895A1E247
:101930001A2EAA1BBB1BFD010DC0AA1FBB1FEE1F49
:10194000FF1FA217B307E407F50720F0A21BB30B94
:10195000E40BF50B661F771F881F991F1A9469F710
:1019600060957095809590959B01AC01BD01CF016C
:101970000895EE0FFF1F0590F491E02D099481E08A
:0C19800090E0F8940C94C40CF894FFCF95
:10198C00FFFFFFFF00E10000000000007E006A1076
:10199C0001000000000000FFFFFF0A000100000032
:1019AC00000000000000000000000000000000002B
:1019BC00000000000000000000000000000000001B
:1019CC00000000000000000000000000000000000B
:1019DC0000000000000000000000000000000000FB
:1019EC0000000000000000000000000000000000EB
:1019FC00000000000000000000E600C18081000033
:101A0C0000000000007F04ED031704CB04480426FB
:101A1C00043A0400000000F7047305F9050D0518DD
:101A2C00052106FD05000000003A05360500A2134D
:101A3C0000133AA7404572726F7220332E00457224
:101A4C00726F722072656164696E67207061636B7E
:101A5C0065742E20204572726F7220636F64653A34
:0E1A6C0020000D0A004572726F7220342E00A9
:2070000055C000006EC000006CC000006AC0000068C0000066C0000064C0000062C0000043
:2070200060C000005EC00000F2C400005AC0000058C0000056C0000054C0000052C00000EE
:2070400050C0000078C000004CC000004AC0000048C0000046C0000044C0000042C00000BE
:2070600040C000003EC000003CC000003AC0000038C0000036C0000034C0000032C0000048
:2070800030C000002EC000002CC000002AC0000028C0000026C0000024C0000022C00000A8
:2070A00020C000001EC000001CC0000011241FBECFEFDAE0DEBFCDBF11E0A0E0B1E0E2E3BC
:2070C000FFE702C005900D92A83AB107D9F711E0A8EAB1E001C01D92AE3BB107E1F78FD30B
:2070E00026C78ECFF89410926F0010928100109285001092840081E085BF15BE47985D9AEB
:20710000289A0C94000008952091B2013091B3012F5F3F4F3093B3012093B201932F37FFA6
:2071200003C08EEF831B982F990F921710F447980895479A08951F920F920FB60F9211246E
:207140002F938F939F93EF93FF9310928500109284008091A8019091A901009741F00197D3
:207160009093A9018093A801892B09F45D9A8091AA019091AB01009741F001979093AB0126
:207180008093AA01892B09F4289AE0E0F0E0859194918F5F9F4F49F08091AC019091AD0151
:2071A00001969093AD018093AC01FF91EF919F918F912F910F900FBE0F901F90189584E0BC
:2071C0008093E9000DC08091E8008B778093E80003C08EB3882351F08091E80082FFF9CFBE
:2071E0008091E80085FFEFCF8091F1000895982F83E08093E9008091E80085FD0DC0809136
:20720000E8008E778093E80003C08EB3882369F08091E80080FFF9CF9093F1005D9884E6CB
:2072200090E09093A9018093A80108954F925F926F927F928F929F92AF92BF92CF92DF921E
:20724000EF92FF920F931F93CF93DF9384E08093E9008091E80082FF57C2289884E690E067
:207260009093AB018093AA01AADF182F853481F48CE49DE19093AD018093AC0107B600FC4B
:20728000FDCFF999FECF81E180935700E89503C0843519F494DF8DE00DC28C34E1F38035F9
:2072A000D1F3843721F484E4A2DF80E003C2813611F489E5FFC18134B1F481DF182F7FDFE3
:2072C00090E0880F991FAA2797FDA095BA2F312F330F20E0442737FD4095542F822B932B68
:2072E000A42BB52BB8C1803711F483E5E3C1833549F4C0E0D1E089917ADF21E0C730D20714
:20730000D1F7D9C1863521F481E371DF80E3D2C1833731F487E86BDF85E969DF8EE1CAC149
:207320008536B9F4E0E0F0E093E085E090935700E89507B600FCFDCF80935700E89507B65D
:2073400000FCFDCFE058FF4FA0E7E030FA0771F7A2CF823739F4E1E0F0E089E08093570024
:207360008491A8C1863439F4E0E0F0E089E08093570084919FC18E3439F4E3E0F0E089E0E5
:2073800080935700849196C1813539F4E2E0F0E089E08093570084918DC1823631F489E521
:2073A00026DF80E024DF80E885C1823419F0873609F0E5C01092AD011092AC0100DF082FE8
:2073C000FEDEF82EFCDE682E8554823008F071C1902F80E0CF2DD0E0C82BD92B10926F00B3
:2073E000173609F04BC081E180935700E895DD24CC24C3943FC0E090AE01F090AF010091CC
:20740000B0011091B101B6E46B16D9F4ED2DF0E0EE29FF29E4918E2FEADEDD2081F082E08D
:2074200090E0A0E0B0E0E80EF91E0A1F1B1FE092AE01F092AF010093B0011093B101DC2470
:2074400018C0D801C701B695A7959795879559D5CEDE82E090E0A0E0B0E0E80EF91E0A1FF2
:207460001B1FE092AE01F092AF010093B0011093B1012197209709F0BECF7DC08090AE01F5
:207480009090AF01A090B001B090B10196E4691609F05DC083E0F40180935700E89507B63E
:2074A00000FCFDCF54C0F6E46F1661F5772031F1E090AE01F090AF010091B0011091B1019E
:2074C0007EDED82ECC24852D90E08C299D29F7010C0140925700E895112482E090E0A0E08B
:2074E000B0E0E80EF91E0A1F1B1FE092AE01F092AF010093B0011093B10102C060DE582E1A
:20750000742423C0E090AE01F090AF010091B0011091B10116950795F794E79450DE682FFA
:20752000C701F7D48091AE019091AF01A091B001B091B1010296A11DB11D8093AE01909349
:20754000AF01A093B001B093B101219704C05524772444244394209709F0A5CF96E46916B6
:2075600041F485E0F40180935700E89507B600FCFDCF8DE03CDE82E080936F009CC0833492
:2075800071F40091AE011091AF0119DE90E021E0F8010C0120935700E89511247CCE8336C8
:2075A00019F5E090AE01F090AF010091B0011091B10105DEF701E16090E021E00C0120938C
:2075C0005700E895112482E090E0A0E0B0E0E80EF91E0A1F1B1FE092AE01F092AF0100936A
:2075E000B0011093B10157CE8D3661F4E091AE01F091AF0185E080935700E89507B600FCF2
:20760000FDCF49CE823551F4E091AE01F091AF0105911491812FEBDD802F4CC0843421F5FE
:20762000E090AE01F090AF010091B0011091B10116950795F794E794C2DD682FC70169D4DE
:207640008091AE019091AF01A091B001B091B1010296A11DB11D8093AE019093AF01A093D8
:20766000B001B093B10117CE843609F5E090AE01F090AF010091B0011091B101D801C70142
:20768000B695A795979587953CD4B1DD82E090E0A0E0B0E0E80EF91E0A1F1B1FE092AE010A
:2076A000F092AF010093B0011093B10104C08B3111F08FE39CDD83E08093E9009091E8002B
:2076C0008091E8008E778093E80095FF04C010C08EB38823C9F08091E80080FFF9CF809193
:2076E000E8008E778093E80003C08EB3882361F08091E80080FFF9CF84E08093E9008091F1
:20770000E8008B778093E800DF91CF911F910F91FF90EF90DF90CF90BF90AF909F908F90AC
:207720007F906F905F904F9008959091B601892F8F77813249F58091B7018032A1F081328A
:2077400019F5913A09F58091E800877F8093E8008DE091E067E070E00BD28091E8008B770B
:207760008093E8000895913279F48091E800877F8093E8008DE091E067E070E05DD2809192
:20778000E8008E778093E800089582E061EC42E0B5D083E061E842E1B1D084E060E842E1EF
:2077A000ADC084B7877F84BF88E10FB6F89480936000109260000FBE20E880E090E00FB63F
:2077C000F89420936100809361000FBE81E085BF92E095BF3F9A209A559AE1E6F0E02083A1
:2077E000108247985D9A289A109289008AEF8093880090936F0083E080938100F0C0409116
:20780000000850910108109201081092000894B714BE88E10FB6F8948093600010926000D5
:207820000FBE292F30E0F901E270F07091FD18C090FF05C0859194918F5F9F4F81F423FFFF
:207840000FC08091090190910A014817590741F0E0E0F0E0859194918F5F9F4F09F042DC64
:20786000A0DF78941092AD011092AC010CC0DEDC36D38091AC019091AD0181549F4110F00D
:207880001092140141DC80911401882381F78091E00081608093E00025DC80E090E0089598
:2078A000FA01923049F0933061F09130F9F485E191E022E130E01EC087E291E02EE330E04D
:2078C00019C0882329F485E691E024E030E012C0813029F489E691E022E230E00BC0823006
:2078E00029F48DE891E028E130E004C080E090E020E030E091838083C90108958093E9004E
:207900008091EB0081608093EB001092ED006093EC004093ED008091EE00881F8827881F62
:2079200008958091B60188238CF403C08EB38823B1F08091E80082FFF9CF8091E8008B772A
:207940008093E80008958EB3882349F08091E80080FFF9CF8091E8008E778093E800089594
:20796000EF92FF920F931F9345D04CD008ED10E0F80180818F77808380818068808380819B
:207980008F7D808319BC1EBA1092B40180EEE82EF12CF70180818B7F8083F8018081816052
:2079A000808380E060E042E0A9DFE1EEF0E080818E7F8083E2EEF0E0808181608083808144
:2079C00088608083F70180818E7F8083F8018081806180831F910F91FF90EF900895E7ED06
:2079E000F0E08081816080838AE482BF81E08093B501B6CFE8EDF0E080818E7F808310921C
:207A0000E20008951092DA001092E10008951F920F920FB60F9211242F933F934F935F93F6
:207A20006F937F938F939F93AF93BF93EF93FF938091DA0080FF1BC08091D80080FF17C0B2
:207A40008091DA008E7F8093DA008091D90080FF0BC080E189BD82E189BD09B400FEFDCF36
:207A600081E08EBB3BD203C019BC1EBA37D28091E10080FF17C08091E20080FF13C0809138
:207A8000E2008E7F8093E2008091E20080618093E2008091D80080628093D80019BC85E049
:207AA0008EBB1CD28091E10084FF2CC08091E20084FF28C080E189BD82E189BD09B400FEC5
:207AC000FDCF8091D8008F7D8093D8008091E1008F7E8093E1008091E2008F7E8093E20012
:207AE0008091E20081608093E2008091B401882331F48091E30087FD02C081E001C084E067
:207B00008EBBECD18091E10083FF21C08091E20083FF1DC08091E100877F8093E10082E06A
:207B20008EBB1092B4018091E1008E7F8093E1008091E2008E7F8093E2008091E2008061E9
:207B40008093E20080E060E042E0D8DEC7D1FF91EF91BF91AF919F918F917F916F915F9130
:207B60004F913F912F910F900FBE0F901F9018959C014091BC015091BD014617570718F49D
:207B8000F90190E044C06115710511F0AB01F8CF8091E8008E778093E80040E050E0F0CF0F
:207BA0008EB3882309F444C0853009F443C08091E80083FF02C081E008958091E80082FD70
:207BC00031C08091E80080FF22C08091F3009091F200782F60E0292F30E0262B372B07C07A
:207BE00081918093F100415050402F5F3F4F4115510519F02830310598F390E02830310566
:207C000009F491E08091E8008E778093E8004115510531F6992321F605C08EB3882341F075
:207C2000853041F08091E80082FFF7CF80E0089582E0089583E008959C016115710529F47C
:207C40008091E8008B778093E800F90126C08EB3882391F1853091F18091E80083FF02C06C
:207C600081E008958091E80082FFF1CF06C08091F10081936150704059F02091F300809191
:207C8000F200322F20E090E0822B932B892B79F78091E8008B778093E80061157105B9F601
:207CA00005C08EB3882341F0853041F08091E80080FFF7CF80E0089582E0089583E00895C2
:207CC0000F931F93DF93CF9300D0CDB7DEB7E6EBF1E08091F100819381E0EE3BF807C9F792
:207CE00024DD8091E80083FFE4C08091B6019091B701953009F46DC0963040F4913081F1A7
:207D0000913070F0933009F0D4C02AC0983009F4A3C0993009F4B2C0963009F0CAC07CC023
:207D2000803809F4C6C0823809F0C3C08091BA0187708093E9008091EB001092E9002091DB
:207D4000E800277F2093E80090E025E0969587952A95E1F781708093F1001092F10087C0D8
:207D6000882319F0823009F0A4C08F71823009F0A0C08091B801882331F52091BA01277097
:207D800009F497C02093E9008091EB0080FF1BC0933021F48091EB00806213C08091EB0018
:207DA00080618093EB0081E090E002C0880F991F2A95E2F78093EA001092EA008091EB00E5
:207DC00088608093EB001092E9008091E800877F51C0882309F06DC01091B8011F770FB79B
:207DE000F8948091E800877F8093E8009ADD8091E80080FFFCCF8091E3008078812B809398
:207E0000E30080688093E300112311F482E001C083E08EBB0FBF4DC08058823008F049C033
:207E20008091B8019091B9016091BA01AE014F5F5F4F36DDBC01009709F43BC08091E8008E
:207E4000877F8093E80089819A8192DE8091E8008B778093E8002DC0803859F58091E800AA
:207E6000877F8093E8008091B4018093F1008091E8008E778093E80054DD1BC08823C9F4CA
:207E80009091B8019230A8F48091E800877F8093E8009093B40145DD8091B401882331F420
:207EA0008091E30087FD02C081E001C084E08EBB6CDC8091E80083FF0AC08091EB0080624E
:207EC0008093EB008091E800877F8093E8000F900F90CF91DF911F910F91089508951F9360
:207EE0008EB3882361F01091E9001092E9008091E80083FF01C0E4DE17701093E9001F916F
:207F00000895F999FECF92BD81BDF89A992780B50895262FF999FECF1FBA92BD81BD20BDBD
:207F20000FB6F894FA9AF99A0FBE01960895F894FFCF4341544552494E4100777700080031
:207F40000000000000080112011001020000084123360001000201000109023E00020100FF
:207F600080320904000001020201000524001001042402040524060001070582030800FF0C
:207F800009040100020A000000070504021000010705830210000104030904220341007216
:207FA000006400750069006E006F0020004C0065006F006E006100720064006F0000001836
:1A7FC00003410072006400750069006E006F0020004C004C004300000000D7
:00000001FF
